{
  "contractName": "Locker",
  "abi": [
    {
      "constant": true,
      "inputs": [
        {
          "name": "",
          "type": "uint256"
        }
      ],
      "name": "inboxInfo",
      "outputs": [
        {
          "name": "id",
          "type": "uint256"
        },
        {
          "name": "name",
          "type": "bytes32"
        },
        {
          "name": "message",
          "type": "string"
        },
        {
          "name": "exists",
          "type": "bool"
        }
      ],
      "payable": false,
      "stateMutability": "view",
      "type": "function"
    },
    {
      "constant": true,
      "inputs": [],
      "name": "owner",
      "outputs": [
        {
          "name": "",
          "type": "address"
        }
      ],
      "payable": false,
      "stateMutability": "view",
      "type": "function"
    },
    {
      "constant": true,
      "inputs": [],
      "name": "message",
      "outputs": [
        {
          "name": "",
          "type": "string"
        }
      ],
      "payable": false,
      "stateMutability": "view",
      "type": "function"
    },
    {
      "inputs": [],
      "payable": false,
      "stateMutability": "nonpayable",
      "type": "constructor"
    },
    {
      "anonymous": false,
      "inputs": [
        {
          "indexed": false,
          "name": "_id",
          "type": "uint256"
        },
        {
          "indexed": false,
          "name": "_name",
          "type": "bytes32"
        },
        {
          "indexed": false,
          "name": "_message",
          "type": "string"
        }
      ],
      "name": "LogSetMessage",
      "type": "event"
    },
    {
      "constant": true,
      "inputs": [
        {
          "name": "_id",
          "type": "uint256"
        }
      ],
      "name": "getMessage",
      "outputs": [
        {
          "name": "",
          "type": "uint256"
        },
        {
          "name": "",
          "type": "bytes32"
        },
        {
          "name": "",
          "type": "string"
        },
        {
          "name": "",
          "type": "bool"
        }
      ],
      "payable": false,
      "stateMutability": "view",
      "type": "function"
    },
    {
      "constant": false,
      "inputs": [
        {
          "name": "_id",
          "type": "uint256"
        },
        {
          "name": "_name",
          "type": "bytes32"
        },
        {
          "name": "_message",
          "type": "string"
        }
      ],
      "name": "setMessage",
      "outputs": [],
      "payable": false,
      "stateMutability": "nonpayable",
      "type": "function"
    },
    {
      "constant": false,
      "inputs": [
        {
          "name": "value",
          "type": "string"
        }
      ],
      "name": "setHello",
      "outputs": [],
      "payable": false,
      "stateMutability": "nonpayable",
      "type": "function"
    },
    {
      "constant": true,
      "inputs": [],
      "name": "getHello",
      "outputs": [
        {
          "name": "",
          "type": "string"
        }
      ],
      "payable": false,
      "stateMutability": "view",
      "type": "function"
    }
  ],
  "bytecode": "0x608060405260206040519081016040528060008152506003908051906020019061002a92919061007e565b5034801561003757600080fd5b5033600160006101000a81548173ffffffffffffffffffffffffffffffffffffffff021916908373ffffffffffffffffffffffffffffffffffffffff160217905550610123565b828054600181600116156101000203166002900490600052602060002090601f016020900481019282601f106100bf57805160ff19168380011785556100ed565b828001600101855582156100ed579182015b828111156100ec5782518255916020019190600101906100d1565b5b5090506100fa91906100fe565b5090565b61012091905b8082111561011c576000816000905550600101610104565b5090565b90565b610b3c806101326000396000f300608060405260043610610083576000357c0100000000000000000000000000000000000000000000000000000000900463ffffffff1680633b24b90414610088578063435ffe941461014f57806386f79edb146101b85780638da5cb5b1461027f5780638da9b772146102d6578063e19c215414610366578063e21f37ce146103e7575b600080fd5b34801561009457600080fd5b506100b360048036038101908080359060200190929190505050610477565b6040518085815260200184600019166000191681526020018060200183151515158152602001828103825284818151815260200191508051906020019080838360005b838110156101115780820151818401526020810190506100f6565b50505050905090810190601f16801561013e5780820380516001836020036101000a031916815260200191505b509550505050505060405180910390f35b34801561015b57600080fd5b506101b6600480360381019080803590602001908201803590602001908080601f016020809104026020016040519081016040528093929190818152602001838380828437820191505050505050919291929050505061054c565b005b3480156101c457600080fd5b506101e360048036038101908080359060200190929190505050610566565b6040518085815260200184600019166000191681526020018060200183151515158152602001828103825284818151815260200191508051906020019080838360005b83811015610241578082015181840152602081019050610226565b50505050905090810190601f16801561026e5780820380516001836020036101000a031916815260200191505b509550505050505060405180910390f35b34801561028b57600080fd5b50610294610695565b604051808273ffffffffffffffffffffffffffffffffffffffff1673ffffffffffffffffffffffffffffffffffffffff16815260200191505060405180910390f35b3480156102e257600080fd5b506102eb6106bb565b6040518080602001828103825283818151815260200191508051906020019080838360005b8381101561032b578082015181840152602081019050610310565b50505050905090810190601f1680156103585780820380516001836020036101000a031916815260200191505b509250505060405180910390f35b34801561037257600080fd5b506103e5600480360381019080803590602001909291908035600019169060200190929190803590602001908201803590602001908080601f016020809104026020016040519081016040528093929190818152602001838380828437820191505050505050919291929050505061075d565b005b3480156103f357600080fd5b506103fc61091f565b6040518080602001828103825283818151815260200191508051906020019080838360005b8381101561043c578082015181840152602081019050610421565b50505050905090810190601f1680156104695780820380516001836020036101000a031916815260200191505b509250505060405180910390f35b6000602052806000526040600020600091509050806000015490806001015490806002018054600181600116156101000203166002900480601f01602080910402602001604051908101604052809291908181526020018280546001816001161561010002031660029004801561052f5780601f106105045761010080835404028352916020019161052f565b820191906000526020600020905b81548152906001019060200180831161051257829003601f168201915b5050505050908060030160009054906101000a900460ff16905084565b80600390805190602001906105629291906109bd565b5050565b60008060606000610575610a3d565b6000808781526020019081526020016000206080604051908101604052908160008201548152602001600182015460001916600019168152602001600282018054600181600116156101000203166002900480601f0160208091040260200160405190810160405280929190818152602001828054600181600116156101000203166002900480156106485780601f1061061d57610100808354040283529160200191610648565b820191906000526020600020905b81548152906001019060200180831161062b57829003601f168201915b505050505081526020016003820160009054906101000a900460ff161515151581525050905080600001518160200151826040015183606001518191509450945094509450509193509193565b600160009054906101000a900473ffffffffffffffffffffffffffffffffffffffff1681565b606060038054600181600116156101000203166002900480601f0160208091040260200160405190810160405280929190818152602001828054600181600116156101000203166002900480156107535780601f1061072857610100808354040283529160200191610753565b820191906000526020600020905b81548152906001019060200180831161073657829003601f168201915b5050505050905090565b6000831015151561076d57600080fd5b60008084815260200190815260200160002060030160009054906101000a900460ff1615151561079c57600080fd5b60806040519081016040528084815260200183600019168152602001828152602001600115158152506000808581526020019081526020016000206000820151816000015560208201518160010190600019169055604082015181600201908051906020019061080d929190610a6b565b5060608201518160030160006101000a81548160ff02191690831515021790555090505080600290805190602001906108479291906109bd565b507f2864e33d4a7524d6fdd05c99d6e861c0151d986c7957e698f68842e6d2e9e089838360026040518084815260200183600019166000191681526020018060200182810382528381815460018160011615610100020316600290048152602001915080546001816001161561010002031660029004801561090a5780601f106108df5761010080835404028352916020019161090a565b820191906000526020600020905b8154815290600101906020018083116108ed57829003601f168201915b505094505050505060405180910390a1505050565b60028054600181600116156101000203166002900480601f0160208091040260200160405190810160405280929190818152602001828054600181600116156101000203166002900480156109b55780601f1061098a576101008083540402835291602001916109b5565b820191906000526020600020905b81548152906001019060200180831161099857829003601f168201915b505050505081565b828054600181600116156101000203166002900490600052602060002090601f016020900481019282601f106109fe57805160ff1916838001178555610a2c565b82800160010185558215610a2c579182015b82811115610a2b578251825591602001919060010190610a10565b5b509050610a399190610aeb565b5090565b6080604051908101604052806000815260200160008019168152602001606081526020016000151581525090565b828054600181600116156101000203166002900490600052602060002090601f016020900481019282601f10610aac57805160ff1916838001178555610ada565b82800160010185558215610ada579182015b82811115610ad9578251825591602001919060010190610abe565b5b509050610ae79190610aeb565b5090565b610b0d91905b80821115610b09576000816000905550600101610af1565b5090565b905600a165627a7a72305820be153d0768a5ce9c3f367ac6b6d789319e156e6854835d792d273b1a01f805570029",
  "source": "pragma solidity ^0.4.24;\n\ncontract Locker {\n    struct Inbox {\n        uint id;\n        bytes32 name;\n        string message;\n        bool exists;\n    }\n    mapping (uint => Inbox) public inboxInfo;\n\n    address public owner;\n    string public message;\n\n    event LogSetMessage(\n        uint _id,\n        bytes32 _name,\n        string _message\n    );\n    \n    constructor() public {\n        owner = msg.sender;\n    }\n\n    function getMessage(uint _id) public view returns(uint, bytes32, string, bool) {\n        Inbox memory inbox = inboxInfo[_id];\n        return (inbox.id, inbox.name, inbox.message, inbox.exists);\n    }\n\n    function setMessage(uint _id, bytes32 _name, string _message) public {\n        require(_id >=0);\n        require(!inboxInfo[_id].exists);\n        \n        inboxInfo[_id] = Inbox(_id, _name, _message, true);\n\n        message = _message;\n        emit LogSetMessage(_id, _name, message);\n    }\n\n    /////////////////////////////////////////\n    // for test set,get\n    string private hello = \"\";\n\n    function setHello(string memory value) public {\n        hello = value;\n    }\n\n    function getHello() public view returns (string memory) {\n        return hello;\n    }\n}",
  "sourcePath": "/home/rong/rainbow/104_bwls/git_runsooj/bluewhalelocker-react/contracts/Locker.sol",
  "compiler": {
    "name": "solc",
    "version": "0.4.25+commit.59dbf8f1.Emscripten.clang"
  },
  "schemaVersion": "2.0.2",
  "updatedAt": "2019-09-17T03:23:43.238Z"
}